{
  "_format": "hh-sol-artifact-1",
  "contractName": "Transactions",
  "sourceName": "contracts/Transactions.sol",
  "abi": [
    {
      "anonymous": false,
      "inputs": [
        {
          "indexed": false,
          "internalType": "address",
          "name": "from",
          "type": "address"
        },
        {
          "indexed": false,
          "internalType": "address",
          "name": "reciever",
          "type": "address"
        },
        {
          "indexed": false,
          "internalType": "string",
          "name": "donorName",
          "type": "string"
        },
        {
          "indexed": false,
          "internalType": "string",
          "name": "donorProfilePic",
          "type": "string"
        },
        {
          "indexed": false,
          "internalType": "string",
          "name": "beneficiaryName",
          "type": "string"
        },
        {
          "indexed": false,
          "internalType": "string",
          "name": "beneficiaryProfilePic",
          "type": "string"
        },
        {
          "indexed": false,
          "internalType": "string",
          "name": "campaignName",
          "type": "string"
        },
        {
          "indexed": false,
          "internalType": "uint256",
          "name": "amount",
          "type": "uint256"
        },
        {
          "indexed": false,
          "internalType": "string",
          "name": "message",
          "type": "string"
        },
        {
          "indexed": false,
          "internalType": "uint256",
          "name": "timestamp",
          "type": "uint256"
        }
      ],
      "name": "Transfer",
      "type": "event"
    },
    {
      "inputs": [
        {
          "internalType": "address payable",
          "name": "reciever",
          "type": "address"
        },
        {
          "internalType": "string",
          "name": "donorName",
          "type": "string"
        },
        {
          "internalType": "string",
          "name": "donorProfilePic",
          "type": "string"
        },
        {
          "internalType": "string",
          "name": "beneficiaryName",
          "type": "string"
        },
        {
          "internalType": "string",
          "name": "beneficiaryProfilePic",
          "type": "string"
        },
        {
          "internalType": "string",
          "name": "campaignName",
          "type": "string"
        },
        {
          "internalType": "uint256",
          "name": "amount",
          "type": "uint256"
        },
        {
          "internalType": "string",
          "name": "message",
          "type": "string"
        }
      ],
      "name": "addToBlockchain",
      "outputs": [],
      "stateMutability": "nonpayable",
      "type": "function"
    },
    {
      "inputs": [],
      "name": "getAllTransactions",
      "outputs": [
        {
          "components": [
            {
              "internalType": "address",
              "name": "donorAddress",
              "type": "address"
            },
            {
              "internalType": "address",
              "name": "beneficiaryAddress",
              "type": "address"
            },
            {
              "internalType": "string",
              "name": "donorName",
              "type": "string"
            },
            {
              "internalType": "string",
              "name": "donorProfilePic",
              "type": "string"
            },
            {
              "internalType": "string",
              "name": "beneficiaryName",
              "type": "string"
            },
            {
              "internalType": "string",
              "name": "beneficiaryProfilePic",
              "type": "string"
            },
            {
              "internalType": "string",
              "name": "campaignName",
              "type": "string"
            },
            {
              "internalType": "uint256",
              "name": "amount",
              "type": "uint256"
            },
            {
              "internalType": "string",
              "name": "message",
              "type": "string"
            },
            {
              "internalType": "uint256",
              "name": "timestamp",
              "type": "uint256"
            }
          ],
          "internalType": "struct Transactions.TransferStruct[]",
          "name": "",
          "type": "tuple[]"
        }
      ],
      "stateMutability": "view",
      "type": "function"
    },
    {
      "inputs": [],
      "name": "getTransactionCount",
      "outputs": [
        {
          "internalType": "uint256",
          "name": "",
          "type": "uint256"
        }
      ],
      "stateMutability": "view",
      "type": "function"
    }
  ],
  "bytecode": "0x608060405234801561001057600080fd5b50611257806100206000396000f3fe608060405234801561001057600080fd5b50600436106100415760003560e01c806327506f53146100465780632e7700f014610064578063788f18dc14610082575b600080fd5b61004e61009e565b60405161005b9190610a0f565b60405180910390f35b61006c61052a565b6040516100799190610a40565b60405180910390f35b61009c60048036038101906100979190610c0e565b610533565b005b60606001805480602002602001604051908101604052809291908181526020016000905b8282101561052157838290600052602060002090600a0201604051806101400160405290816000820160009054906101000a900473ffffffffffffffffffffffffffffffffffffffff1673ffffffffffffffffffffffffffffffffffffffff1673ffffffffffffffffffffffffffffffffffffffff1681526020016001820160009054906101000a900473ffffffffffffffffffffffffffffffffffffffff1673ffffffffffffffffffffffffffffffffffffffff1673ffffffffffffffffffffffffffffffffffffffff1681526020016002820180546101a290610d9b565b80601f01602080910402602001604051908101604052809291908181526020018280546101ce90610d9b565b801561021b5780601f106101f05761010080835404028352916020019161021b565b820191906000526020600020905b8154815290600101906020018083116101fe57829003601f168201915b5050505050815260200160038201805461023490610d9b565b80601f016020809104026020016040519081016040528092919081815260200182805461026090610d9b565b80156102ad5780601f10610282576101008083540402835291602001916102ad565b820191906000526020600020905b81548152906001019060200180831161029057829003601f168201915b505050505081526020016004820180546102c690610d9b565b80601f01602080910402602001604051908101604052809291908181526020018280546102f290610d9b565b801561033f5780601f106103145761010080835404028352916020019161033f565b820191906000526020600020905b81548152906001019060200180831161032257829003601f168201915b5050505050815260200160058201805461035890610d9b565b80601f016020809104026020016040519081016040528092919081815260200182805461038490610d9b565b80156103d15780601f106103a6576101008083540402835291602001916103d1565b820191906000526020600020905b8154815290600101906020018083116103b457829003601f168201915b505050505081526020016006820180546103ea90610d9b565b80601f016020809104026020016040519081016040528092919081815260200182805461041690610d9b565b80156104635780601f1061043857610100808354040283529160200191610463565b820191906000526020600020905b81548152906001019060200180831161044657829003601f168201915b505050505081526020016007820154815260200160088201805461048690610d9b565b80601f01602080910402602001604051908101604052809291908181526020018280546104b290610d9b565b80156104ff5780601f106104d4576101008083540402835291602001916104ff565b820191906000526020600020905b8154815290600101906020018083116104e257829003601f168201915b50505050508152602001600982015481525050815260200190600101906100c2565b50505050905090565b60008054905090565b60016000808282546105459190610dfb565b9250508190555060016040518061014001604052803373ffffffffffffffffffffffffffffffffffffffff1681526020018a73ffffffffffffffffffffffffffffffffffffffff1681526020018981526020018881526020018781526020018681526020018581526020018481526020018381526020014281525090806001815401808255809150506001900390600052602060002090600a020160009091909190915060008201518160000160006101000a81548173ffffffffffffffffffffffffffffffffffffffff021916908373ffffffffffffffffffffffffffffffffffffffff16021790555060208201518160010160006101000a81548173ffffffffffffffffffffffffffffffffffffffff021916908373ffffffffffffffffffffffffffffffffffffffff160217905550604082015181600201908161068c9190610fdb565b5060608201518160030190816106a29190610fdb565b5060808201518160040190816106b89190610fdb565b5060a08201518160050190816106ce9190610fdb565b5060c08201518160060190816106e49190610fdb565b5060e082015181600701556101008201518160080190816107059190610fdb565b50610120820151816009015550507ff52db27f1ae1147487800d538e315ad20119d5f879ceadf0bb107d0a39c339da338989898989898989426040516107549a9998979695949392919061115b565b60405180910390a15050505050505050565b600081519050919050565b600082825260208201905092915050565b6000819050602082019050919050565b600073ffffffffffffffffffffffffffffffffffffffff82169050919050565b60006107bd82610792565b9050919050565b6107cd816107b2565b82525050565b600081519050919050565b600082825260208201905092915050565b60005b8381101561080d5780820151818401526020810190506107f2565b60008484015250505050565b6000601f19601f8301169050919050565b6000610835826107d3565b61083f81856107de565b935061084f8185602086016107ef565b61085881610819565b840191505092915050565b6000819050919050565b61087681610863565b82525050565b60006101408301600083015161089560008601826107c4565b5060208301516108a860208601826107c4565b50604083015184820360408601526108c0828261082a565b915050606083015184820360608601526108da828261082a565b915050608083015184820360808601526108f4828261082a565b91505060a083015184820360a086015261090e828261082a565b91505060c083015184820360c0860152610928828261082a565b91505060e083015161093d60e086018261086d565b50610100830151848203610100860152610957828261082a565b91505061012083015161096e61012086018261086d565b508091505092915050565b6000610985838361087c565b905092915050565b6000602082019050919050565b60006109a582610766565b6109af8185610771565b9350836020820285016109c185610782565b8060005b858110156109fd57848403895281516109de8582610979565b94506109e98361098d565b925060208a019950506001810190506109c5565b50829750879550505050505092915050565b60006020820190508181036000830152610a29818461099a565b905092915050565b610a3a81610863565b82525050565b6000602082019050610a556000830184610a31565b92915050565b6000604051905090565b600080fd5b600080fd5b6000610a7a82610792565b9050919050565b610a8a81610a6f565b8114610a9557600080fd5b50565b600081359050610aa781610a81565b92915050565b600080fd5b600080fd5b7f4e487b7100000000000000000000000000000000000000000000000000000000600052604160045260246000fd5b610aef82610819565b810181811067ffffffffffffffff82111715610b0e57610b0d610ab7565b5b80604052505050565b6000610b21610a5b565b9050610b2d8282610ae6565b919050565b600067ffffffffffffffff821115610b4d57610b4c610ab7565b5b610b5682610819565b9050602081019050919050565b82818337600083830152505050565b6000610b85610b8084610b32565b610b17565b905082815260208101848484011115610ba157610ba0610ab2565b5b610bac848285610b63565b509392505050565b600082601f830112610bc957610bc8610aad565b5b8135610bd9848260208601610b72565b91505092915050565b610beb81610863565b8114610bf657600080fd5b50565b600081359050610c0881610be2565b92915050565b600080600080600080600080610100898b031215610c2f57610c2e610a65565b5b6000610c3d8b828c01610a98565b985050602089013567ffffffffffffffff811115610c5e57610c5d610a6a565b5b610c6a8b828c01610bb4565b975050604089013567ffffffffffffffff811115610c8b57610c8a610a6a565b5b610c978b828c01610bb4565b965050606089013567ffffffffffffffff811115610cb857610cb7610a6a565b5b610cc48b828c01610bb4565b955050608089013567ffffffffffffffff811115610ce557610ce4610a6a565b5b610cf18b828c01610bb4565b94505060a089013567ffffffffffffffff811115610d1257610d11610a6a565b5b610d1e8b828c01610bb4565b93505060c0610d2f8b828c01610bf9565b92505060e089013567ffffffffffffffff811115610d5057610d4f610a6a565b5b610d5c8b828c01610bb4565b9150509295985092959890939650565b7f4e487b7100000000000000000000000000000000000000000000000000000000600052602260045260246000fd5b60006002820490506001821680610db357607f821691505b602082108103610dc657610dc5610d6c565b5b50919050565b7f4e487b7100000000000000000000000000000000000000000000000000000000600052601160045260246000fd5b6000610e0682610863565b9150610e1183610863565b9250828201905080821115610e2957610e28610dcc565b5b92915050565b60008190508160005260206000209050919050565b60006020601f8301049050919050565b600082821b905092915050565b600060088302610e917fffffffffffffffffffffffffffffffffffffffffffffffffffffffffffffffff82610e54565b610e9b8683610e54565b95508019841693508086168417925050509392505050565b6000819050919050565b6000610ed8610ed3610ece84610863565b610eb3565b610863565b9050919050565b6000819050919050565b610ef283610ebd565b610f06610efe82610edf565b848454610e61565b825550505050565b600090565b610f1b610f0e565b610f26818484610ee9565b505050565b5b81811015610f4a57610f3f600082610f13565b600181019050610f2c565b5050565b601f821115610f8f57610f6081610e2f565b610f6984610e44565b81016020851015610f78578190505b610f8c610f8485610e44565b830182610f2b565b50505b505050565b600082821c905092915050565b6000610fb260001984600802610f94565b1980831691505092915050565b6000610fcb8383610fa1565b9150826002028217905092915050565b610fe4826107d3565b67ffffffffffffffff811115610ffd57610ffc610ab7565b5b6110078254610d9b565b611012828285610f4e565b600060209050601f8311600181146110455760008415611033578287015190505b61103d8582610fbf565b8655506110a5565b601f19841661105386610e2f565b60005b8281101561107b57848901518255600182019150602085019450602081019050611056565b868310156110985784890151611094601f891682610fa1565b8355505b6001600288020188555050505b505050505050565b6110b6816107b2565b82525050565b60006110d76110d26110cd84610792565b610eb3565b610792565b9050919050565b60006110e9826110bc565b9050919050565b60006110fb826110de565b9050919050565b61110b816110f0565b82525050565b600082825260208201905092915050565b600061112d826107d3565b6111378185611111565b93506111478185602086016107ef565b61115081610819565b840191505092915050565b600061014082019050611171600083018d6110ad565b61117e602083018c611102565b8181036040830152611190818b611122565b905081810360608301526111a4818a611122565b905081810360808301526111b88189611122565b905081810360a08301526111cc8188611122565b905081810360c08301526111e08187611122565b90506111ef60e0830186610a31565b8181036101008301526112028185611122565b9050611212610120830184610a31565b9b9a505050505050505050505056fea2646970667358221220f4f975204de42567b88f6831298e976909f5bde9c4ac57afb78dcbccaed6e78464736f6c63430008130033",
  "linkReferences": {},
  "deployedLinkReferences": {}
}